:020000040800F2
:1000000000000220CD0300081D0400081D040008A4
:100010001D0400081D0400081D0400080000000065
:100020000000000000000000000000001D040008A7
:100030001D040008000000001D0400081D04000845
:100040001D0400081D0400081D0400081D0400080C
:100050001D0400081D0400081D0400081D040008FC
:100060001D0400081D0400081D0400081D040008EC
:100070001D0400081D0400081D0400081D040008DC
:100080001D0400081D0400081D0400081D040008CC
:100090001D0400081D0400081D0400081D040008BC
:1000A0001D0400081D0400081D0400081D040008AC
:1000B0001D0400081D0400081D0400081D0400089C
:1000C0001D0400081D0400081D0400081D0400088C
:1000D0001D0400081D0400081D0400081D0400087C
:1000E0001D0400081D0400081D0400081D0400086C
:1000F0001D0400081D0400081D0400081D0400085C
:100100001D0400081D0400081D0400081D0400084B
:100110001D0400081D0400081D0400081D0400083B
:100120001D0400081D0400081D0400081D0400082B
:100130001D04000800000000000000001D0400086D
:100140001D0400081D0400081D0400081D0400080B
:100150001D0400081D0400081D0400081D040008FB
:100160001D0400081D0400081D0400081D040008EB
:100170001D0400081D0400081D0400080000000004
:10018000000000001D040008000000000000000046
:100190001D04000800000000000000001D0400080D
:1001A0000000000000000000000000001D04000826
:1001B0001D0400081D0400081D0400081D0400089B
:0401C0001D04000812
:1001C40080B400AF4FF46053C4F202034FF46052A2
:1001D400C4F20202126842F480321A6000BF4FF483
:1001E4006053C4F202031B6803F40033002BF6D0FF
:1001F4004FF46153C4F202034FF46152C4F2020299
:10020400126842F080521A604FF4E043C4F20003D3
:100214004FF4E042C4F20002126842F440421A6011
:100224004FF47053C4F2020340F205721A6043F6AD
:100234000803C4F2020343F60802C4F2020212687D
:1002440042F4A0521A6043F60803C4F2020343F6D0
:100254000802C4F20202126842F400421A6043F631
:100264000403C4F2020342F60452C2F200421A60CA
:1002740043F60403C4F2020343F60402C4F2020286
:10028400126842F480021A604FF46053C4F202030D
:100294004FF46052C4F20202126842F080721A6093
:1002A40000BF4FF46053C4F202031B6803F00073F1
:1002B400002BF6D04FF4E043C4F200034FF4E042C5
:1002C400C4F20002126842F480321A6000BF47F29E
:1002D4000403C4F200031B6803F48033002BF6D03C
:1002E4004FF4E043C4F200034FF4E042C4F20002CE
:1002F400126842F400321A6000BF47F20403C4F2E9
:1003040000031B6803F40033002BF6D043F6080304
:10031400C4F2020343F60802C4F20202126842F075
:1003240002021A6000BF43F60803C4F202031B680A
:1003340003F00C03082BF6D1BD465DF8047B70472F
:1003440080B400AFBD465DF8047B704780B400AF55
:10035400BD465DF8047B704780B400AFBD465DF8D0
:10036400047B704780B400AFFEE700BF70B540F275
:10037400204640F22045C0F60006C0F60005761B74
:10038400B6101CBF043D002405D0013455F8043FC9
:100394009847A642F9D140F2204640F22045C0F6E3
:1003A4000005C0F60006761BFFF7D0FFB6101CBF91
:1003B400043D002406D0013455F8043F9847A64272
:1003C400F9D170BD70BD00BFDFF834D0FFF7B8FFBE
:1003D4000C480D490D4A002302E0D458C45004339C
:1003E400C4188C42F9D30A4A0A4C002301E0136072
:1003F4000432A242FBD3FFF7B9FFFFF7B3FF704704
:10040400000002200000002000000020200400085A
:0C0414000000002000000020FEE70000B7
:04000005080003CD1F
:00000001FF
