:020000040800F2
:100000000000022005020008550200085502000801
:1000100055020008550200085502000800000000C3
:100020000000000000000000000000005502000871
:1000300055020008000000005502000855020008A3
:100040005502000855020008550200085502000834
:100050005502000855020008550200085502000824
:100060005502000855020008550200085502000814
:100070005502000855020008550200085502000804
:1000800055020008550200085502000855020008F4
:1000900055020008550200085502000855020008E4
:1000A00055020008550200085502000855020008D4
:1000B00055020008550200085502000855020008C4
:1000C00055020008550200085502000855020008B4
:1000D00055020008550200085502000855020008A4
:1000E0005502000855020008550200085502000894
:1000F0005502000855020008550200085502000884
:100100005502000855020008550200085502000873
:100110005502000855020008550200085502000863
:100120005502000855020008550200085502000853
:100130005502000800000000000000005502000801
:100140005502000855020008550200085502000833
:100150005502000855020008550200085502000823
:100160005502000855020008550200085502000813
:100170005502000855020008550200080000000062
:100180000000000055020008000000000000000010
:1001900055020008000000000000000055020008A1
:1001A00000000000000000000000000055020008F0
:1001B00055020008550200085502000855020008C3
:0401C00055020008DC
:1001C40080B400AF00BFBD4680BC704780B400AFB0
:1001D40000BFBD4680BC704780B400AF00BFBD46C1
:1001E40080BC704780B400AF00BFFDE7A0020008E8
:1001F400000000200000002000000020000000207B
:10020400DFF834D0FFF7DCFF0C480D490D4A00231A
:1002140002E0D458C4500433C4188C42F9D30A4AB7
:100224000A4C002301E013600432A242FBD300F025
:1002340011F8FFF7D7FF70470000022000000020EC
:1002440000000020A00200080000002000000020A0
:10025400FEE7000070B50D4B0D4C00261D1BB6EBE0
:10026400A50F09D1FFF7B2FF0A4C0B4B00261D1B4B
:10027400B6EBA50F05D170BD54F8043B9847013681
:10028400EDE754F8043B98470136F1E7A002000873
:0C029400A0020008A0020008A002000860
:0400000508000205E8
:00000001FF
